:020000040800F2
:10000000A80A002059010008BD360008E1330008A5
:1000100000000000000000000000000000000000E0
:100020000000000000000000000000009D390008F2
:100030000000000000000000BF360008D93A0008A8
:100040006B010008000000006B0100086B01000854
:100050006B0100086B0100086B01000877180008AD
:10006000000000006B0100086B0100086B01000834
:100070006B0100086B0100086B0100080000000024
:100080006B010008693B000800000000593B0008B4
:100090006B0100086B0100086B0100086B01000890
:1000A0006B0100086B0100086B0100086146000845
:1000B0006B01000800F002F800F03EF80CA030C818
:1000C000083824182D18A246671EAB4654465D46D4
:1000D000AC4201D100F030F87E460F3E0FCCB64660
:1000E0000126334200D0FB1AA246AB4633431847E1
:1000F000C85A0000E85A0000103A02D378C878C104
:10010000FAD8520701D330C830C101D504680C6059
:10011000704700000023002400250026103A01D378
:1001200078C1FBD8520700D330C100D50B607047AF
:100130001FB51FBD10B510BD01F070F91146FFF7D6
:10014000F7FF04F0F5FB01F088F903B4FFF7F2FFC5
:1001500003BC01F0C5F90000074880470748004785
:10016000FEE7FEE7FEE7FEE7FEE7FEE70448054997
:10017000054A064B70470000553B0008B5000008D3
:10018000A8040020A80A0020A8060020A806002035
:10019000FEB5054610460C46184373D0AE468C4655
:1001A0000020AD1A01469C4167D366460027012412
:1001B0003D46B61A9D4102D313463A462124654670
:1001C00076462F04360C3E432D0CB61A9D4104D3BF
:1001D000150C1B042B4312041034654676462F067B
:1001E000360A3E432D0AB61A9D4104D3150E1B0252
:1001F0002B4312020834654676462F0736093E43E4
:100200002D09B61A9D4104D3150F1B012B43120172
:10021000241D65467646AF07B6083E43AD08B61ABC
:100220009D4104D3950F9B002B439200A41C65466F
:100230007646EF0776083E436D08B61A9D411AD3FD
:1002400092185B41641C16E00018764665464941E9
:10025000B71A9D410191009009D36046B11A9841A7
:100260008E468446009801990025401C6941DD07AF
:1002700052082A435B08641EE6D57246634603B003
:10028000F0BDFFE700200146C046C0462A4623468F
:10029000F5E701E004C0091F0429FBD28B0701D553
:1002A0000280801CC90700D00270704700290BD063
:1002B000C30702D00270401C491E022904D38307E1
:1002C00002D50280801C891EE3E70022EEE70022AF
:1002D000DFE70378C2781946437812061B021943F8
:1002E0008378C0781B04194311430902090A0006E8
:1002F00008437047020A08704A70020C8A70020EA6
:10030000CA707047002203098B422CD3030A8B4228
:1003100011D300239C464EE003460B433CD40022FD
:1003200043088B4231D303098B421CD3030A8B420F
:1003300001D394463FE0C3098B4201D3CB01C01ADD
:10034000524183098B4201D38B01C01A52414309A8
:100350008B4201D34B01C01A524103098B4201D396
:100360000B01C01A5241C3088B4201D3CB00C01A03
:10037000524183088B4201D38B00C01A524143087B
:100380008B4201D34B00C01A5241411A00D20146A0
:100390005241104670475DE0CA0F00D04942031039
:1003A00000D34042534000229C4603098B422DD388
:1003B000030A8B4212D3FC22890112BA030A8B4230
:1003C0000CD3890192118B4208D3890192118B427F
:1003D00004D389013AD0921100E08909C3098B4204
:1003E00001D3CB01C01A524183098B4201D38B0147
:1003F000C01A524143098B4201D34B01C01A5241EA
:1004000003098B4201D30B01C01A5241C3088B422E
:1004100001D3CB00C01A524183088B4201D38B0019
:10042000C01A5241D9D243088B4201D34B00C01AA3
:100430005241411A00D20146634652415B101046B8
:1004400001D34042002B00D54942704763465B1000
:1004500000D3404201B50020C046C04602BD7047EF
:10046000704770470246C80FC00781434B0030B544
:100470004B405B009B0D20D01923DB06C9180123DC
:100480001B05994220DB0324A40704251346AB4037
:100490000BD3002B04D1EB0613409B00E34204D4A2
:1004A00001246407002312195941FF231B059942B7
:1004B0000BD2C9000143500F09E0CB0204D5014320
:1004C0000803024305D0054830BDFF21C905084394
:1004D00030BD084607210905884330BD0000C07FB4
:1004E000F0B50C46871A9C410D46861A9D4103D2F1
:1004F000C01BA141D21963410D0D1F0DC94EEC1B4C
:10050000AE435CD07F057F0D0026002F51D02D0516
:10051000AC46A943DD020123ED0A1B051D43202340
:100520001B1B24D41746E740381871412F46E7407B
:10053000CC199D402818314661410C0D27D16144EA
:100540009A4013D50023401C594152000ED1400857
:10055000400001224B005205D34207D3052040073B
:10056000C14201D5B04900E0B0493046F0BD6B0052
:10057000002A00D001229A181F23203C1B1B01D502
:10058000002302E0E540281871410C0DD7D001246A
:1005900024050919C407CD0740084908E40F28437A
:1005A0006144002CD5D00024401C61419A40D0D138
:1005B000CDE76A05520DD9D1C90FC907D5E79C4DC2
:1005C0004E00002801D0012400E0002434195F000F
:1005D000002A01D0012600E00026BE19954FAC424A
:1005E0000CD8AE420AD8B44206D001256D05EC42C3
:1005F000BCD010461946F0BD9942FCD000203946C7
:10060000F0BDF0B51FB40C460F46811A9F41254638
:10061000861A9D4106D20125ED076F40401ABC4164
:1006200052187B41210D1E0D8D1BAC467D4D8D4317
:100630007ED075056D0D7CD00D05AE46AC431B0319
:100640001B0B794D52429D41202366469B1B14D3C0
:100650001746F740381800260090744160462F4630
:100660000741E41900989D402818664116D4714648
:1006700071189A4025D5012320E093182A466A4133
:100680005200002B00D0521C1E23203E9B1B002B2F
:1006900061DD3541EE1728186641E8D5001876412E
:1006A0005B1C9A4000D3401C4B05F3181524E34013
:1006B00010D3002B52D071467118D30FC01802D33B
:1006C000491C05B0F0BD0123DB079A42F9D140086F
:1006D0004000F6E701225205B21801D1002853D09C
:1006E0000123CC0ADB029943891E002A08D1020C9F
:1006F00003D0020C0004103902E002460020203929
:100700000023550B05D112020823550B01D15201CC
:100710000D23550C01D112011B1DD50C01D19200E6
:100720009B1C150D01D152005B1C2025EE1A01E027
:100730002CE022E00546F54015439840CA1AE1072F
:1007400069181305C918002ABBDA032040070818E6
:10075000C10FC9070FE071466118B2E7F107400801
:100760000843711071444A000CD001235B059A4282
:10077000A7D2C90FC9070020A3E74905490D26D113
:10078000002001E00028F4D100219AE7284D6600FE
:10079000002801D0012100E0002171185F00002A2B
:1007A00001D0012600E00026BE19224FA94210D830
:1007B000AE420ED8B14208D001256D05E94206D0FF
:1007C0001946A802414010467BE79C4201D02146D1
:1007D00077E70020394674E710B50C465C4005D534
:1007E0000124E4076340FFF70CFF10BDFFF778FE1C
:1007F00010BD30B40C465C4004D50124E4076340CE
:1008000030BC6DE630BCFCE670B50124E407614005
:100810000D465D4002D4FFF763FE70BD6340FFF7F5
:10082000F0FE70BDFF0700000000F0FF0000F07F49
:100830000000E0FF0000F87FF0B5F94D0C091E093B
:100840002C402E402F468BB0A7437DD0B543FCD023
:10085000002E7AD0002CFCD00D465D40ED0F2543D4
:10086000AC1BFF25AD0464190894C502440DC902F0
:100870002143500DDC0204430120C007014304431F
:10088000D2020191200C110C00958C4601042346E4
:100890008B430A9161460904E24D8A430991010A9A
:1008A0007D4449198039097805464D4301266D1864
:1008B000F605751B6943C90C640B891C4C4364180D
:1008C000B5012C1B250C2E04B4434C434D43210C85
:1008D000691889090591009DE90701D00121C9071F
:1008E00004912C4601996708CD072F434C08059DBC
:1008F000E10B4D432D0C29466646754302950D4686
:1009000045432E46029D7D1BB44100950D465D4337
:1009100001942C0C2F040D465543AE462D0C3D433F
:10092000029503947546049C2D04641B049406D21E
:10093000029C039D641C002675410395029401AC42
:1009400070CC009F7D1B01E03EE162E1B4410904EF
:100950000095079101940599A4086143090C0C4680
:100960004443650BE7040C4666467443A646640B95
:100970003C43039502947446049DE4042C1B0494A8
:1009800006D2029C039D641C0026754103950294C7
:1009900001AC70CC009F7D1BB44101940C465C43BC
:1009A0000095650FE7000C465443A646640F3C4390
:1009B000039502947446049DE4002C1B049406D213
:1009C000029C039D641C002675410395029401ACB2
:1009D00070CC009F7D1BB441AE09AF06049DC900D9
:1009E000AD092F43049DA406AD060495079D34432D
:1009F00069180791059DE10B4D432D0C294666466C
:100A0000754302950D4645432E46029D7D1BB4411C
:100A100000950D465D4301942C0C2F040D46554363
:100A2000AE462D0C3D43029503947546049C2D045F
:100A3000641B049406D2029C039D641C002675412D
:100A40000395029401AC70CC009F7D1BB4410194CE
:100A50008C050694079C890A611800950791019CF2
:100A60000599A4086143090C0D464543680BEF0442
:100A70000D46644665436C0B3C43049FED047D1BAF
:100A8000AC4602D20025641C6841009E019D371BC4
:100A900085410846584301950C46460FC50054430E
:100AA000600F28436546E4002C1B02D20025401C41
:100AB0006E41019D3F1AB5412846BD098006284375
:100AC0008446A009BF064E020699A406761807437D
:100AD000079D002068410A99079019430020099B4F
:100AE00000906046FF1913434041E20F64003A430F
:100AF000A4460446D71A8C41A04203D90120009095
:100B000020463A46C70F941840416246D20F22430E
:100B1000644664000494009CBE466400D71AA44650
:100B2000044602978C417746002F01D1A04204D998
:100B30006046401C8446029A2046C40FA64694187C
:100B40004041049A0546D20F224364466400D31AFA
:100B50008D417146002901D1A84202D928461A4682
:100B6000641C10430122002800D0164361020020BB
:100B7000079B891904465C410223002C02DB4918BB
:100B800013466441089DCE0A2D145D194B05670577
:100B9000E10A2C050D1908993E43C9076940002B4D
:100BA00008D0934006D30022761C5141002B01D17E
:100BB000760876001C4A002D43DB154241D0AA433B
:100BC0003FD030460BB0F0BD06180D464D41174CD6
:100BD0007642AC411AD395181C465C41134A6D42CB
:100BE000A24113D3012252054C00D4420AD15C0029
:100BF000D4420BD04B4002D592021143E2E74900A8
:100C00004908DFE75940C90FC90718E00020084923
:100C1000D8E7054801420DD10342F7D0F2E70000C2
:100C20000000FF07C45100000000F07F0000E0FF5B
:100C30000000F87F114859400143C0124140002094
:100C4000C0E70123089A9B069A4205DC032252075B
:100C50008918C90FC907B5E7052252078918074A3D
:100C60001143D2125140ADE770B515461C460246FD
:100C70000B4628462146FFF7DFFD70BDFFFFFF7FD3
:100C80000121C9050123411842001B06D3185B0E40
:100C90000AD0C1100722D206891840075242D14219
:100CA00001D5520089187047090208D50146002A6B
:100CB00003D0C10FC9070020704710467047420299
:100CC00002D0002002497047072109050143F4E7DB
:100CD0000000F87FF0B5FF252D04C609C209FF27E3
:100CE00004462E400137CB093E4348402A402B4062
:100CF0000746002A6BD0002B69D0AA4267D0AB42CE
:100D000065D0002800DA32460125ED0529432C4341
:100D100009022002090AD21A4B0C7F24E31A434C21
:100D2000000A7C44E35C7D242404121914145B0043
:100D3000A218884201D3521C00E0400049420C46F0
:100D40005C4324115C43DB016415E318040A5C4333
:100D5000C502200D0C4644436419250A5D43230354
:100D6000EC0C0D46654300030019EB184C42A342FE
:100D700001D35B18401CD4052018002B07D05B0062
:100D8000C91804D3401C002901D1400840003F216C
:100D900089048A4209D3002A08DC1106090F04D00D
:100DA000032149074018C00FC007F0BD01224100D0
:100DB000120689187F2252069142F6D20521490770
:100DC000C84201D59010F0BDFF20C005F0BD002F36
:100DD00000DA32461648AA4207D2AB4205D21902BF
:100DE000090E17D0F80FC007F0BDFF2563002D06D0
:100DF000AB42F9D84900A942F6D8AB4201D1A94289
:100E0000F2D0A94201D1002101E061004908D005DA
:100E10000843F0BD1102090EFBD0FF200243D005AC
:100E2000F0BD0A460146104654E70000C24D0000DE
:100E30000000C07F0102C21504D00123DB07194363
:100E4000002A0ADB9E239A1A02D40846D040704733
:100E5000FF2241001206914201D900207047C017BD
:100E6000C04370471F22030C02D10F2200041CD084
:100E7000030E01D10002083A030F01D10001121F35
:100E8000830F01D18000921E002801DB4000521E1A
:100E9000D2055118021251181922904004D3491C4E
:100EA000002801D14908490008467047C10FC90709
:100EB00000D04042012292071143D3E70121890764
:100EC000D0E710B500F0BAF9006810BD10B50446BF
:100ED00000F0B4F9046010BD1F22030C02D10F22F0
:100EE000000402D0030E03D004E000200146704746
:100EF0000002083A030F01D10001121F830F01D134
:100F00008000921E002801DB4000521E120551187D
:100F10004205C012411810467047C10FC90700D0E2
:100F20004042012292071143D6E701218907D3E706
:100F3000F0B58B4C0F09254689B0BD437BD01D0908
:100F40002646AE43FAD00E465E402740F60F3E439B
:100F5000254071D024012142FBD0FF24AD19A40407
:100F60002D1B039501252D05DB02DB0AC9022B434E
:100F7000C90A29431E010901040F130F050121436A
:100F80001701880B820391432D098C46A90B1E4340
:100F90008A039543B30B9A0396433F09BA0B940314
:100FA000A74302962E467E430497B6464E19D7199C
:100FB0000C460196544305977E43371B7646BF1B6C
:100FC0003601B646BE0B361900967646BC04371974
:100FD000009C01D3641C00946400002F01D0012602
:100FE0003443029E049F754366467E430496760012
:100FF00034196E0034190094029C019E1C1966433A
:10100000751BAE46069465464519059C05956C43CF
:10101000594375460891691A0191049E014651434E
:10102000A41B0491611A009C0791E10605D0610997
:101030000122114302E072E06EE06109089D002781
:101040002C0A2D066918049D7C412A0A2D06691870
:10105000019D6241AC0DAD026D185441079A910D8E
:10106000920255196141029A644658435443069BC3
:10107000059A5A43121A131B9A0E9B015B187A4168
:10108000010B0005C3185141220A200644195A4198
:101090009A4200D2491C01204002814203D3152309
:1010A0000226F64302E014230326F6432020C51A45
:1010B000A9401746AF40DA400A4320460399D8407A
:1010C0000914731819055118039A3843D20751406F
:1010D000AC4009D00122944006D30022401C51416B
:1010E000002C01D1400840001E4A934212D3012235
:1010F00003989206904207DB0520400709181A481A
:101100000143C012414004E0032040070818C10F0A
:10111000C907002009B0F0BD0020F107FAE7051863
:101120000C464C4111486D42A04115D394181A4603
:101130005A410E48644290410ED301204A004005B6
:10114000824209D35A00824206D35940C90F084A45
:10115000C90700201143DDE700200649DAE7000057
:101160000000FF07FE070000FFFFFF7F0000E0FF19
:101170000000F07F0000F87F70B505464800440D80
:10118000124B0020002C0AD0634008D09A4206DAA5
:101190006642B24203DD12054019514170BD002C78
:1011A00008D0002B09D0C90FC907002AF6DB084A6E
:1011B000114370BDC90FC90770BD28460A0310430B
:1011C00002D00020034970BD284670BDFF07000013
:1011D0000000F07F0000F87F10B5FF231B064400DD
:1011E0009C421DD84C009C421AD80346124A0B431D
:1011F00007D4401A02D3EFF3008010BDEFF3008054
:1012000010BD081A06D2EFF3008001219043C907F0
:10121000084302E0EFF30080904380F3008810BDA4
:101220000D231B041A4204D01146002000F00AF8D6
:1012300010BD00F0E7F810BD0000009000487047B6
:1012400048040020C80212D54803400F002804D0EB
:10125000C803C043012188407047EFF300800001BC
:10126000000903210907084380F300887047002024
:1012700070470000F8B5224C4E00069DA6420AD8E1
:10128000A64201D1002806D15E00A64203D8A6429C
:101290000AD1002A08D00D24240425422CD0294646
:1012A0000020FFF7CFFFF8BD0C461C430CD4994239
:1012B00002D0EFF30080F8BD904202D0EFF300803F
:1012C000F8BDEFF30080F8BD09242407E5008B4248
:1012D00006D0EFF30080A043591A06D2284304E059
:1012E000101A05D3EFF30080A04380F30088F8BD07
:1012F000EFF30080A043F1E7009500F0B7F8F8BDE8
:101300000000E0FFF0B53D4B02460C461C400020BB
:10131000002C63D03A4D8B4366D000296BDB0B0D5C
:101320001D05A94301252D0529430124FD33E34073
:1013300001D392184941FF3381339C468B02940DAF
:101340000121234389074C42920200271B198C106C
:101350005D1A04D42D1B02D42B466500491992183E
:101360005B416408F4D15C1A08D40125ED07EE173F
:101370005519744102D42A462346491C94185B41EE
:10138000012292071D46E61B8D4106D4B61A8541FF
:1013900003D42B46550034467F1924195B4152086B
:1013A000802AEFD1234300D0022338460A22D040BE
:1013B00001D3012213438A0510436246890A1205AC
:1013C0008918002B09D00122D34002D30022401CEF
:1013D0005141002B01D140084000F0BD0B031343E5
:1013E00007D0C90FC907F0BD0803104303D1002976
:1013F00001DB1046F0BD00202946F0BD0000F07F63
:101400000000F87F10B5024800F03AF810BD000067
:101410000000C07F00487047480400207546FFF771
:10142000F9FFAE46050069465346C008C000854630
:1014300018B020B5FEF79AFE60BC00274908B646F2
:101440000026C0C5C0C5C0C5C0C5C0C5C0C5C0C5D3
:10145000C0C5403D49008D46704710B50446C046A2
:10146000C0462046FEF771FE10BD000010B50020FA
:101470000249029A00F004F810BD00000000F87F55
:1014800010B50C461107090F092904D00A290AD002
:1014900008290CD104E011460820FFF7D3FE06E02E
:1014A000510606D501E0510601D50120C0072146AD
:1014B00010BDD10607D501010909CC084907000E66
:1014C0000006044309E0410F20024907000A0143D6
:1014D000200E00061D22D14101430846E7E7000027
:1014E00001491820ABBEFEE726000200704710B588
:1014F000044601220321022000F00EF8FF21090218
:1015000088430121A1400906090C0143012303225C
:10151000022000F07CF810BDF7B50D46002182B026
:10152000400700910C46800E0191694640300870DA
:1015300001260927F603FF0600223146384600F04F
:1015400002FB681CC2B26946049802F047F9012206
:101550003146384600F0F7FA012D04D0022D05D0AF
:10156000032D13D108E0684644780FE068464078C0
:1015700001026846807808E06846407801046846C1
:101580008078000209186846C0780C18204605B01B
:10159000F0BD000010B5012400F029F87D20C00046
:1015A00000F0C4F9012211460420FFF7B5FF0449F9
:1015B00008700007000F042800D00024204610BD4A
:1015C0001C00002070B50C460546012203210220B4
:1015D000FFF7A2FF00090001E90001436007400F87
:1015E000014301230322022000F011F870BD0EB563
:1015F000012069460870FF2048708870C870087123
:10160000487188710722012002F0BCF90EBD7FB538
:1016100082B000211C46009101914007800E6B466C
:10162000187003A9684604E00B788354521ED2B2A6
:10163000491C002AF8D101250926ED03F6062946A2
:10164000304600F080FA04226946204602F09AF9FA
:1016500001222946304600F076FA06B070BD00003F
:10166000F0B57D4C85B02646314635462078603150
:10167000012740352036029100283ED0207A0028EC
:1016800006D127720620FFF732FF00F063FA60618F
:1016900000F060FA6169401A64282ED9218A00227C
:1016A000E06800F050FA00F0EEF80121C905401A98
:1016B00081004018FFF702FC6849FFF70BFB6060F0
:1016C0000390FFF7DDFA0022654BFFF79DF80191CB
:1016D00000906449039804F0C3F8FFF7D1FA019B26
:1016E000009AFFF7A9F8FEF7BDFEA0610020207068
:1016F000277730762875307105E0207F00283ED0AE
:101700003079002806D137710520FFF7F0FE00F090
:1017100021FA206300F01EFA216B401A64282ED9AA
:10172000A18D0022A06A00F00EFA00F0ACF80121B1
:10173000C905401A81004018FFF7C0FB4749FFF771
:10174000C9FA20620390FFF79BFA0022444BFFF78F
:101750005BF8019100904349039804F081F8FFF78A
:101760008FFA019B009AFFF767F8FEF77BFE606334
:1017700000202077207028753776287005E0307EAD
:1017800000283FD02878002806D12F700420FFF7CA
:10179000AEFE00F0DFF9E06400F0DCF9E16C401A25
:1017A00064282FD929890022606C00F0CCF900F060
:1017B0006AF80121C905401A81004018FFF77EFB35
:1017C0002649FFF787FAE0630390FFF759FA0022F2
:1017D000234BFFF719F8019100902249039804F078
:1017E0003FF8FFF74DFA019B009AFFF725F8FEF747
:1017F00039FE206500202077207030762F75029901
:10180000087006E0287D002824D00298007800287F
:1018100007D1029807700720FFF769FE00F09AF9D8
:10182000A06600F097F9A16E401A642812D900F062
:101830002AF80121C905401A81004018FFF73EFB34
:101840000649FFF747FAA065002020773076287513
:101850002770207205B0F0BD5C020020FEFFFF4A39
:10186000000004400080ED43002000E0401C88425E
:10187000FCDB0020704710B50120400300F080F829
:1018800010BD72B6FEE710B5032100220846FFF72F
:1018900043FE044601220920D103C00600F053F99B
:1018A000204610BD30B5014620314B780022022B76
:1018B00004D0042383630A70012030BD03681C68D0
:1018C0000E25AC431C6003681C68640864001C603F
:1018D0000123056C1C46C06BAC4044604B700A7021
:1018E000002030BD70B50024014620314A78022A1C
:1018F00003D004218163012416E0026813680E25D9
:10190000AB431360026813685B085B00136001223D
:10191000056C1346AB40C56B6B604A7000220A70C1
:10192000416B002900D08847204670BD70B5044641
:1019300000F010F90546601C02D004480078241815
:1019400000F008F9401BA042FAD370BD040000204B
:10195000012110B5490388420ED1084C0022218B89
:10196000606900F0F0F82046403001890022606C88
:1019700000F0E9F802F084FB10BD0000F402002042
:1019800010B504494A69024202D04861FFF7E0FFFE
:1019900010BD000000040140F8B500230324012518
:1019A000BAE02E469E40B44632407CD00E79B6074F
:1019B000B60F012E01D0022E17D186682746B646F3
:1019C0005E00B74000967646BE43B646CF68009E9E
:1019D000B74076463743876046686746BE430F790F
:1019E000FF06FF0F9F40374347600E79F643B60767
:1019F0000ED0C6682746B4465E00B646B740664677
:101A0000BE43B4468F687646B74066463743C760E4
:101A10000E79B607B60F022E14D1DE08B6003618BE
:101A20000096366A5F07B446FE0E0F27B646B740EB
:101A30006646BE43B4460F697646B74066463743AE
:101A4000009E376206682746B4465E00B646B74039
:101A50006646BE430F79B446BF07BF0F7646B74010
:101A60006646374307604E68B603B60F53D02D4F16
:101A7000BE692E43BE61BE699F08F607F60F2A4E67
:101A8000BF00BE190096B6680F27B4469E07360FF2
:101A9000B646B7406646BE430927FF06B446B8427D
:101AA00002D1002710E036E0204FB84201D10127D3
:101AB0000AE01F4FB84201D1022705E01D4FB8428E
:101AC00001D1032700E005277646B7406646374335
:101AD000009EB760184E36684F689643FF0300D5E6
:101AE0001643154F3E607E684F689643BF0300D58E
:101AF0001643114F7E60BE684F689643FF0200D5C3
:101B000016430D4FBE60FE684F689643BF0200D576
:101B10001643094AD6605B1C0A681646DE4000D0B0
:101B20003FE7F8BD001002400000014000040048FB
:101B300000080048000C004800040140006908400B
:101B400000D001207047002A01D081617047816276
:101B500070470000014880687047000004000020C2
:101B6000024881680278891881607047040000206B
:101B700010B506480168102211430160032000F0EF
:101B800007F800F027F8002010BD000000200240F8
:101B900070B504460D4D7D202978C000FEF7B2FBDC
:101BA00001460B480068FEF7ADFB00F05BFE002825
:101BB00009D1042C07D200222146401E00F03AF839
:101BC00000206C6070BD012070BD0000040000208A
:101BD0001000002008B50848816901221143816185
:101BE000816911400091C26901040A43C261C06960
:101BF0000840009008BD000000100240002809DBEA
:101C0000C106C90E0120884003490860BFF34F8F09
:101C1000BFF36F8F7047000080E100E0002805DB14
:101C2000C106C90E012088400149086070470000C4
:101C300000E100E010B502F081FD10BDF8B50546E9
:101C40000068354CC00352D5E0690026C00007D4B7
:101C5000E16920040143E161E1690140012600914D
:101C60002E480168C90510D401688215114301602E
:101C7000FFF770FF074604E0FFF76CFFC01B642806
:101C800024D826480068C005F6D5206A03273F02FD
:101C9000384020D06968394081421CD0206A226ACD
:101CA000B843012109040A432262226A8A4322625C
:101CB0002062C0070FD0FFF74DFF009008E0FFF74C
:101CC00049FF0099411A1648814201D90320F8BD05
:101CD000206A8007F3D5206A6968B8430843206208
:101CE000002E04D0E169012000078143E1612878DA
:101CF000C00705D0206BA9688008800008432063D6
:101D00002878800605D5206B10218843E9680843B0
:101D100020630020F8BD0000001002400070004069
:101D200088130000F8B50F46060059D03A4D2868D0
:101D3000C007C00FB84209D22868400840003843A5
:101D400028602868C007C00FB84249D13068334CBA
:101D500081070CD5400704D56068072109020843B4
:101D600060606068F0218843B16808436060307843
:101D7000C00726D0706801280ED0216802280ED036
:101D8000890700292CDA61688908890001436160AC
:101D9000FFF7E0FE00900DE021688903F1E789017B
:101DA000EFE7FFF7D7FE0099411A1D48814201D99C
:101DB0000320F8BD60680C210840716889008842E2
:101DC000EFD12868C007C00FB8420BD92868400877
:101DD0004000384328602868C007C00FB84201D0CF
:101DE0000120F8BD3078400706D560680721090258
:101DF0008843F1680843606000F028F86168094A88
:101E00000906090F515CC840074908600320FFF725
:101E1000BFFE0020F8BD000000200240001002407C
:101E200088130000505A000810000020044805499B
:101E300000684968044A4905490F515CC840704729
:101E40001000002000100240605A000810B515A3D1
:101E50000FCB88B06C460FC416A30FCB0FC4194A22
:101E600051680C200B4603401748042B02D0082B66
:101E700002D0401008B010BD8B021B0F6C46E45C12
:101E8000D26A04AB1207120F9A5CC90305D500236E
:101E90001946FEF77DF9214601E020460B4902F084
:101EA00011FCE7E702030405060708090A0B0C0DFD
:101EB0000E0F10100102030405060708090A0B0C97
:101EC0000D0E0F10001002400024F40000093D0028
:101ED000FEB5040070D02078DC4DC0074AD0686899
:101EE0000007800F012807D068680007800F0228CC
:101EF00009D16868C00306D5286880033AD56068B0
:101F00000028E7D036E06168012914D00120800460
:101F1000002901D0052914D02A68012109048A4327
:101F20002A602968814329606068002816D0FFF77D
:101F300011FE06460EE028680121090408432860C6
:101F4000F2E7296801432960F5E7FFF703FE801BEC
:101F500064286ED828688003F7D50BE0FFF7FAFDF8
:101F6000064604E0FFF7F6FD801B6428F1D82868D8
:101F70008003F7D420780126800700283CDA6868BF
:101F80000007800F07D068680007800F022809D17A
:101F90006868C00306D42868800716D5E068012861
:101FA0000AD112E0E0680028286816D03043286083
:101FB000FFF7D0FD074605E043E1FFF7CBFDC01B6F
:101FC0000228C6D828688007F7D52868F8218843F2
:101FD0002169C900084328600EE0400840002860DD
:101FE000FFF7B8FD074604E0FFF7B4FDC01B022869
:101FF000AFD828688007F7D42078000722D5E06999
:102000000028686A0ED030436862FFF7A3FD0746D8
:1020100004E0FFF79FFDC01B02289AD8686A80077A
:10202000F7D50FE0400840006862FFF793FD0746D0
:1020300005E09DE0FFF78EFDC01B022889D8686A85
:102040008007F7D4207804274007002860DA0020B2
:102050000190E869C00008D4E969B8060143E96164
:10206000E969014001200091019079480168C905A2
:1020700011D40168821511430160FFF76BFD0090D8
:1020800005E0FFF767FD0099401A642870D8704892
:102090000068C005F5D5A06801280AD0002801D045
:1020A000052810D0286A400840002862286AB843F2
:1020B00001E0286A30432862A068002812D0FFF7A8
:1020C00049FD00900AE0286A38432862F1E7FFF7EB
:1020D00041FD0099411A5F48814249D8286A80072A
:1020E000F5D50DE0FFF736FD009006E0FFF732FD75
:1020F0000099411A574881423AD8286A8007F5D496
:102100000198002804D0E969012000078143E961B2
:102110002078C00635D5606901280CD0401D686B59
:1021200023D038436863686B400840006863FFF75A
:1021300011FD064622E0686B38436863686B3043E4
:102140006863FFF707FD064604E0FFF703FD801B09
:1021500002285BD8686B8007F7D5686BF821884345
:10216000A169C900084368630BE0B8436863F4E7FA
:102170004CE0FFF7EFFC801B022847D8686B800714
:10218000F7D4206A00285ED069680907890F022900
:1021900042D0012636060228286805D0B0432860C0
:1021A000FFF7D8FC044633E0B0432860FFF7D2FCC9
:1021B000074604E0FFF7CEFCC01B022826D828689B
:1021C0008001F7D4E86AE16A000900010843E86287
:1021D000616AA06A084369683D221204914308437A
:1021E0006860286830432860FFF7B4FC044604E0C8
:1021F000FFF7B0FC001B022808D828688001F7D53B
:1022000021E0FFF7A7FC001B022801D90320FEBD37
:1022100028688001F5D416E00128F8D06868E96ADA
:1022200001221204636A02409A420AD10907E26A53
:10223000090F914205D10F2189040840A16A884203
:1022400001D00120FEBD0020FEBD000000100240B4
:102250000070004088130000F8B504000CD0606ADC
:10226000002500280AD02561656126464036A56212
:10227000707F002808D00BE00120F8BD6168C81FFE
:10228000FD38F2D0E561F0E73577204600F05CF8E4
:102290000222727720680168402399430160072376
:1022A000E1681B02994201D9002001E001200003EE
:1022B0000F273F02B94202D0994200D0A562FF2306
:1022C0006168053319402127A368BF023B401943C9
:1022D00023691340227D1943D207D20F11430123F2
:1022E000A2695B021A401143E26938231A40114384
:1022F000226A80231A401143A26A9B011A401143AB
:1023000022681160A1690422090C1140626A10233D
:102310001A401143626B08231A4011430F23E268ED
:102320001B021A401143012212031040014320688E
:1023300041602068C16952109143C1612566012046
:1023400070770020F8BD000010B586B00446142157
:102350006846FDF7BCFF1149206888421BD1104830
:10236000826981140A43826182690A400592426946
:1023700089010A4342614069084005903820009075
:1023800002200021019003200291049103906946EC
:102390000448FFF701FB06B010BD0000003001400B
:1023A0000010024000040048FFB504464068FF21C9
:1023B000254600260531403581B01746884202D1B6
:1023C000A06800280CD0287F012815D0012028778C
:1023D000FFF7C0FB0090687F01280FD002268FE036
:1023E0000420687713460498029A0090114620460C
:1023F00000F03EF905B0F0BD0220FBE7029800288E
:102400007DD0002F7BD004206877002020660299C1
:102410002164AF80EF80A063A087E087E06420653F
:1024200007210120E268090200038A4222685368FA
:1024300001D9834300E0034353600123A068DB0319
:102440004022984208D120680368934303602068C3
:1024500003681702BB430360206803685B0602D46D
:10246000036813430360E06888421AD938E02068A3
:102470008168C90709D0007B216C0870206C401C62
:102480002064E888401EE8800BE0FFF763FB0099BA
:10249000411A0498814202D3401C02D036E0002841
:1024A00034D0E8880028E2D11DE020688168C9079F
:1024B00009D0C068216C0880206C801C2064E888EA
:1024C000401EE8800CE0FFF745FB01460098091A22
:1024D0000498814202D3401C02D017E0002815D096
:1024E000E8880028E1D12046009A049901F014F907
:1024F000002801D020202066206E002800D0012670
:102500000120687700202877304673E70326F7E735
:10251000FFB5054604464035287F002781B01646A2
:10252000012809D001202877FFF714FB0090687F6D
:10253000012804D0022795E0022005B0F0BD0298E2
:10254000002872D0002E70D003206877002020660B
:102550000299A163A687E6872064A880E8802065A9
:10256000E0640122A068D2034021904208D1206893
:1025700002688A430260206802680B021A43026004
:1025800020680268520602D402680A4302600721EA
:10259000E06809028842606826D9002801D0012E2F
:1025A0001ED1A06B21680088C86006E020688168A1
:1025B000890709D5A16B0988C160A06B801CA06345
:1025C000E08F401EE0870BE0FFF7C4FA0099411A44
:1025D0000498814202D3401C02D039E0002837D051
:1025E000E08F0028E2D126E0002801D0012E1FD183
:1025F000A06B21680078087306E02068816889076D
:1026000009D5A16B09780173A06B401CA063E08F12
:10261000401EE0870CE0FFF79DFA0099411A0498EC
:10262000814203D3401C03D012E01AE000280FD0EF
:10263000E08F0028E1D12046009A049901F0A8F823
:10264000002801D020202066A068002802D005E0E4
:10265000032707E02068C16880680090206E00288A
:1026600000D001270120687700202877384664E7EA
:10267000FFB5044683B00120019000202546403577
:102680000090287F0C9F1E4601280FD0012028773C
:10269000FFF760FA0290687F616801280DD0CA1FB9
:1026A000FD3A08D1A168002905D102E0022007B057
:1026B000F0BD042801D00220D1E00498002820D0E9
:1026C000059800281DD0002E1BD0687F042801D05B
:1026D000052068770020206605992164EE80AE8091
:1026E0000499A163E687A687E0642065072101209D
:1026F000E268090200038A422268536803D98343CF
:1027000002E00120ABE003435360206802685206F8
:1027100003D4026840231A430260E068884260687C
:1027200044D9002801D0012E39D1A06B216800883E
:10273000C860A06B801CA063E08F401EE0872EE085
:1027400020688168890710D5E18F00290DD0019993
:1027500001290AD1A16B0988C160A06B801CA0630C
:10276000E08F401EE0870020019020688168C90743
:102770000DD0E98800290AD0C068216C0880206C3F
:10278000801C2064E888401EE88001200190FFF74B
:10279000E1F90299401AB84201D3781C5ED1E08F6A
:1027A0000028CDD1E8880028CAD146E0002801D011
:1027B000012E3CD1A06B216800780873A06B401CEF
:1027C000A063E08F401EE08731E0206881688907C0
:1027D00010D5E18F00290DD0019901290AD1A16BF3
:1027E00009780173A06B401CA063E08F401EE08756
:1027F0000020019020688168C9070DD0E988002970
:102800000AD0007B216C0870206C401C2064E88892
:10281000401EE88001200190FFF79CF90299401AC0
:10282000B84202D3781C02D018E0002F16D0E08FF7
:102830000028CAD1E8880028C7D139462046029A24
:1028400000F0A6FF002803D0012000902020206681
:102850000120687700202877009828E7032000905F
:10286000F6E70000094910B5401E884201D9012051
:1028700010BD074C60610321081F01F05FFF0020BD
:10288000A06107202061002010BD0000FFFFFF00B5
:1028900000E000E070477047F0B502462032137F39
:1028A000012B1ED001251577022353770668746823
:1028B000B3687027BC430F682743776000680A4CF1
:1028C000A04205D0094CA04202D0094CA04204D13C
:1028D00080244968A343194381605577002010770D
:1028E000F0BD0220F0BD0000002C014000040040BB
:1028F0000040014070B5040005D025462035687FB2
:10290000002802D006E0012070BD00202877204674
:1029100000F014F802206877211D206801F02CF9DE
:1029200001204034A071A877E87720706070A07013
:10293000E070207160716877002070BD08B5184A9A
:1029400001681848914207D1C26902210A43C26155
:10295000C0690840009008BD134A91420DD1C26978
:1029600010210A43C261C06900220840009011464C
:102970001120FFF75FF911200FE00C4A9142EAD1D4
:10298000C26989150A43C261C069002208400090EB
:1029900011461320FFF74EF91320FFF73FF908BD4A
:1029A00000040040001002400010004000200040E1
:1029B000014620314A7F012A01D0012070470222BE
:1029C0004A770268D36801210B43D3600068094A43
:1029D000904205D0084A904202D0084A904204D161
:1029E00082685207520F062A02D002680A43026028
:1029F00000207047002C01400004004000400140CE
:102A00000168CA6852085200CA6001680A6A084B25
:102A10001A4207D10A6A9B101A4203D10A68520867
:102A200052000A60012120304177002070470000E9
:102A300011110000F8B5054604462035287F002610
:102A4000012817D001202877022068772268906833
:102A50007727FF23B8431B029843906008685028EB
:102A600038D00EDC20284FD006DC00284CD01028AF
:102A70001ED149E00220F8BD302845D0402817D1AA
:102A80003AE060282ED0702819D001221203801A53
:102A90000FD090420CD1CB684A688968206801F059
:102AA000BCF820688168012292031143816000E034
:102AB000012601206877002028773046F8BDCB68D2
:102AC0004A688968206801F0A8F821688868384356
:102AD0008860EEE7CA684968206801F0ADF95021C6
:102AE000206806E0CA684968206801F0B6F96021EC
:102AF000206801F09DF8DCE7CA684968206801F0A9
:102B00009BF940212068F4E7226801461046F0E76F
:102B1000704770B50446006801690025C9438907FC
:102B2000002915DBC168C943890711D4E91E016179
:102B300001202077206880698007204602D0FFF7B7
:102B4000E7FF04E000F0BEF8204600F049F92577E1
:102B500020680169C943490717D4C168C9434907B7
:102B600013D40421C94301610220207720688069C1
:102B70008005800F204602D0FFF7CAFF04E000F076
:102B8000A1F8204600F02CF9257720680169C94397
:102B9000090716D4C168C943090712D40821C943DB
:102BA0000161042020772068C0698007204602D098
:102BB000FFF7AEFF04E000F085F8204600F010F9C2
:102BC000257720680169C943C90617D4C168C9437C
:102BD000C90613D41021C943016108202077206859
:102BE000C0698005800F204602D0FFF791FF04E006
:102BF00000F068F8204600F0F3F8257720680169B6
:102C0000C943C90708D1C168C943C90704D1891E8E
:102C10000161204600F03AF920680169C9430906BC
:102C200009D4C168C943090605D48021C94301619B
:102C30002046FFF72FFE20680169C943490609D4E1
:102C4000C168C943490605D44021C94301612046F2
:102C500000F050F920680169C943890609D4C168A8
:102C6000C943890605D42021C94301612046FFF7E5
:102C700012FE70BD10B586B0044614216846FDF7FB
:102C800026FB0E492068884215D10D484269491338
:102C90000A434261406908400590402000900220AC
:102CA00001900020029003900120049009206946C1
:102CB000C006FEF771FE06B010BD00000004004023
:102CC000001002407047F8B5064604462036307FB3
:102CD00000270D4601280ED001203077002A0CD0A5
:102CE000042A1BD0082A2FD00C2A3ED0012700200E
:102CF00030773846F8BD0220F8BD206800F0A0FF0C
:102D00002068816908221143816120688269042159
:102D10008A438261206881692A6912E0206800F094
:102D2000D3FF206882690121C9020A4382612068B9
:102D300081690122920291438161206881692A6937
:102D4000120211438161D2E7206800F0FDFF206884
:102D5000C16908221143C1612068C26904218A4304
:102D6000C2612068C1692A6912E0206801F02EF86A
:102D70002068C1690122D2021143C1612068C26981
:102D8000012189028A43C2612068C1692A6912024D
:102D90001143C161ABE770B5040005D0254620356D
:102DA000687F002802D006E0012070BD002028774F
:102DB000204600F014F802206877211D206800F0FA
:102DC000DBFE01204034A071A877E87720706070A6
:102DD000A070E070207160716877002070BD70474E
:102DE0007047000030B504460222203000290AD086
:102DF00004290DD02046403008290ED04378012BFD
:102E000010D0012030BD837F012BFAD182770AE0F8
:102E1000C37F012BF5D1C27705E00378012BF0D1F8
:102E2000027000E042700122206800F0E9FE1249C1
:102E30002068124B884207D0984205D0104A904231
:102E400002D0104A904204D1426C0125ED032A437E
:102E5000426420680122884204D00B49884201D094
:102E6000984204D181684907490F062902D00168B8
:102E700011430160002030BD002C014000400140A2
:102E800000440140004801400004004070B5184C67
:102E90000546E16A0068096888420DD12146227B17
:102EA0004869098B012A02D0022A02D10022FEF7CA
:102EB0004AFEE06AFFF7A4FDE16D286809688842D0
:102EC00014D10B482030017F2030012902D0022983
:102ED00004D008E001890122606C02E0018900222F
:102EE000606CFEF730FEE06DFFF78AFD70BD0000FC
:102EF000F40200207047704770470000F8B5026880
:102F00000446D069116896689C4B05461D402023F5
:102F1000002D75D0F7079A4DFF0FBC460D402F438B
:102F20006DD02546C7078035002F06D0CF0504D5C4
:102F3000012717622A683A432A60820708D5F207F8
:102F400006D0276802223A622A6804273A432A6098
:102F5000420708D5F20706D02668042232622A68A2
:102F6000022632432A6002070AD50A461A406646FC
:102F7000324305D02668082232622E6816432E603E
:102F8000020508D54A0106D501222668D20232621E
:102F90002A681A432A602A68002A39D0800606D592
:102FA000880604D5616E002901D02046884728682C
:102FB00021688968490602D4282108422DD020467C
:102FC00001F024F921688868400622D5EFF31080CB
:102FD000012282F310888B68402293438B6080F338
:102FE0001088206F002814D066494163206FFEF7D7
:102FF00079FC00280CD0206F416B08E000E012E063
:10300000850610D58D060ED5616E9DE02046884759
:10301000F8BD2046FFF770FFF8BD2046FFF76CFFB4
:1030200000202860F8BD256E012D7DD1C5067BD519
:10303000CD0679D51026166222689068254640068E
:103040004035002845DA216F086840680004000C0C
:10305000E8D02F8B8742E5D968838869202833D050
:10306000EFF31080012181F3108811683701B94313
:10307000116080F31088EFF31080012181F3108834
:1030800021688A68520852008A6080F31088EFF342
:103090001080012181F3108821688A684027BA4393
:1030A0008A6080F31088E36700202066EFF31080C9
:1030B000012181F3108821680A68B2430A6080F315
:1030C0001088206FFEF7EEFB288B698B401A81B2C7
:1030D00031E0288B698B401A81B2688B0028A1D01F
:1030E00000299FD0EFF31080012585F31088156823
:1030F000FF272137BD43156080F31088EFF3108060
:10310000012282F31088226895686D086D00956031
:1031100080F31088E367002020666066EFF310807C
:10312000012282F3108800E009E022681368B343AB
:10313000136080F310882046FFF7DDFEF8BD05061A
:1031400006D50D0604D5A16E002900D05EE7F8BDB6
:103150004006FCD54806FAD52046EFF3108101243D
:1031600084F3108814684025AC43146081F3108800
:1031700083670021816600F032F9F8BD0F08000076
:1031800020010004F941000810B5040003D0A06F2D
:10319000002802D007E0012010BD00217420015555
:1031A000204600F027F82420A0672068016849081D
:1031B00049000160204601F001F90128ECD0606A65
:1031C000002802D0204600F07FFF206841680122DD
:1031D000D202914341602068816808229143816056
:1031E00020680168012211430160204600F0D2FFEF
:1031F00010BD000010B586B0044614216846FDF7E6
:1032000066F817492068884227D11648826901214B
:1032100089030A43826182690A4005924269C900B2
:103220000A43426140690840059003204002009033
:1032300002200190002002900320039001200490BE
:1032400009206946C006FEF7A7FB002211461B2095
:10325000FEF7F0FC1B20FEF7E1FC06B010BD0000FD
:10326000003801400010024070B5C36F202B2BD1F5
:1032700000290BD0002A09D0012483682403A3422B
:1032800006D10369002B03D1CB0701D0012070BD0B
:10329000034660331C7D012C16D001241C750023CD
:1032A0000366046863681B020BD5EFF310830125E6
:1032B00085F3108825680126B6063543256083F31B
:1032C000108801F015F970BD022070BD10B50168BD
:1032D0000B48006B006881420CD109488038416876
:1032E0000B2907D2074A1378024609328B544168EA
:1032F000491C4160012203490348FFF7B5FF10BD97
:10330000040400201D0000205C010020FFB50446DD
:10331000806F83B017460D4620285ED1002D0AD05D
:10332000002F08D0A168C001814207D12069002880
:1033300004D1E80702D0012007B0F0BD204660307C
:103340000090007D012848D00098012101750020DF
:10335000802108512120A067FEF7FCFB264640365D
:103360000190378277820120A1680003814202D157
:103370002069002805D02F460025009900200875F7
:1033800011E00027F9E700228021204601F0FEF835
:10339000002815D1002F15D02168387808857F1CAA
:1033A000708A401E7082708A019B002806980090E7
:1033B000E9D100224021204601F0E8F8002808D099
:1033C0000320B9E728882168C005C00D0885AD1C19
:1033D000E6E72020A0670020AEE70220ACE77047B8
:1033E000FEE700000D480C494023C218C16313805A
:1033F0000163802181860A499A004161028301624A
:1034000051008184032101720122014620310A7397
:103410000A760449C160704700140048F00100209A
:103420000004004884000020F0B587B014216846ED
:10343000FCF74DFF364842690121C9040A43426145
:1034400042690A4005924269C9000A4342614269E1
:103450000A400592426949110A43426142690A40A1
:103460000592426949000A434261406903250840C8
:10347000AD030590002229462648FEF764FB264E40
:10348000092000223146C006FEF75DFB234F0022D3
:1034900039462348FEF757FB0120400300901120D6
:1034A000000400240190694602941A48FEF774FA59
:1034B0000095012502946946164801950394FEF78C
:1034C0006BFA092002946946C006009601950394A0
:1034D000FEF762FA02946946114800970195039439
:1034E000FEF75AFAC02000900194694602940D48F4
:1034F000FEF752FA002211460720FEF79BFB072039
:10350000FEF78CFB0720FEF779FB07B0F0BD00004B
:1035100000100240000800483F81000003830000C3
:10352000000400480014004810B511480F4901601C
:10353000FF210531416007221202C2600021816033
:10354000022202610122426152028261016238223A
:103550004162C261816207220163C2624163FEF778
:103560007BFE002801D0FEF78CF910BD0030014031
:103570002000002010B50A48084901602F21416051
:1035800000218160074A0161C2608161FFF7B2F9E1
:10359000002801D0FEF775F910BD000000200040A2
:1035A000140100201027000010B58EB000240794ED
:1035B000089409940A940B941C2168460C94FCF717
:1035C00086FE2248204901602F2184604160046109
:1035D0001F498461C160FFF78DF9002801D0FEF713
:1035E00050F901200003079007A91848FFF722FAB5
:1035F000002801D0FEF745F91448FFF7CCFB00285E
:1036000001D0FEF73EF90B940BA910480C94FFF77C
:1036100043F9002801D0FEF734F9602000900194AE
:1036200002940022694604940848FFF74CFB0028E6
:1036300001D0FEF726F900210448FFF7D3FB034829
:10364000FFF718FB0EB010BD0004004084000020FE
:10365000E703000010B50948074901602F214160C8
:103660000021074A8160C2608161FFF743F90028A9
:1036700001D0FEF706F910BD00100040CC0000207C
:103680001027000010B50C480A490160E1214902E9
:10369000416000218160C16001618161C1610C22D2
:1036A000016242614162FFF76FFD002801D0FEF721
:1036B000E8F810BD003801405C010020FEE77047CB
:1036C00010B50C4C2146227B48680989012A02D09A
:1036D000022A02D10022FEF736FA0748C121017002
:1036E000B721417000218170217B01720121C170DD
:1036F00010BD000034020020A40300200548044946
:1037000041600121C903018102210173704700005A
:103710000008004834020020F7B504464068FF2640
:10372000053682B01546B0420CD10121A068C9030C
:10373000884202D04911884204D1206801684022A1
:10374000914301600095002280212046039B00F0F8
:10375000BDF82027002813D16068B04216D1A068B8
:10376000B902884202D0491188420FD10321009545
:10377000002249022046039B00F03CF8002805D0B7
:10378000206E38432066032005B0F0BD0020FBE723
:10379000F8B50F460B461546009203210446002259
:1037A000C90200F027F82026002812D13B4600224B
:1037B00080212046009500F089F8002809D10321D6
:1037C0003B46002249022046009500F013F80028ED
:1037D00003D0206E304320660320F8BD10B50348A7
:1037E000034BC06EFEF7E0FD10BD00005C02002040
:1037F000FFFF0000FFB585B00E4604460020694675
:103800000E9D17460871FEF7A5F9411B0898451A49
:10381000FEF7A0F90390206823210C3002902A487B
:1038200000684843000D684346E00320400286429A
:1038300006D1002F04D10298017868460171007901
:103840000898401C39D0FEF785F90399401AA84220
:1038500005D2002D03D0009800282BD02BE0206843
:103860004168E022914341606068C11FFD390CD17D
:103870000121A068C903884202D04911884204D1BD
:10388000206801684022914301600120A16A400341
:10389000814207D121680A6882430A6021680A6868
:1038A00002430A6001204034607700202077032023
:1038B00009B0F0BD0025401E0090206880683040AF
:1038C000B842B2D10020F3E710000020FFB581B06C
:1038D0001E4604460A9DFEF73DF9401B351AFEF7C9
:1038E00039F90746264800684001000D684339E071
:1038F000701C38D0FEF72EF9C01BA84205D2002D4F
:1039000003D0009800282BD02BE020684168E022EB
:10391000914341606068C11FFD390CD10121A0684D
:10392000C903884202D04911884204D12068016845
:103930004022914301600120A16A4003814207D1E6
:1039400021680A6882430A6021680A6802430A60A3
:1039500001204034607700202077032005B0F0BDBF
:103960000025401E0090206881680298884305D099
:10397000002103988142BBD10020EFE70121F8E745
:103980001000002010B50348034BC06EFEF7C0FDC9
:1039900010BD00005C020020FFFF00007047000027
:1039A0000548044941600121890301810221017018
:1039B000704700000008004844020020F8B53E4C63
:1039C0003E4E214623788A7C486800270989022BCD
:1039D00002D0012B17D009E0012A02D0002A02D020
:1039E00004E0012200E00022FEF7ADF87F21C905C6
:1039F000606901F0C5FEB16D01F08AFF08D20220B6
:103A0000207420704CE0012AEDD0002AE9D0EDE7C7
:103A10006169B06D01F07CFF42D201252574274811
:103A20006169806D01F0ACFF254EB04201DD25706B
:103A300035E0607C00281AD165742570FEF78AF89D
:103A4000E0601E486169806D01F09AFF3146FDF724
:103A500041F91C4D294601F003FF294601F084FF7E
:103A6000194901F08DFEFDF7E5F918494860FEF7A8
:103A700071F8E168154D401A2968884201D9022081
:103A80002070FEF767F8E168401A6968884206D836
:103A9000FEF760F8E168401A0D49884200D9677462
:103AA0000C48C121C175B72101764776217CC177C9
:103AB00006218176F8BD0000440200205C0200204F
:103AC0000000704100401C460000FA441400002031
:103AD00010270000C403002010B5FEF741F810BD08
:103AE00070B594B030216846FCF7F1FB00240E94C9
:103AF000139410200994022504900D940F9405202E
:103B0000129401260095C0040C94109403960A9018
:103B1000119408950B946846FEF7DAF9002801D055
:103B200072B6FEE707200C900E9401210D950F94BC
:103B30000CA8FEF7F7F8002801D072B6FEE710A82F
:103B400010961294FEF77AF8002801D072B6FEE7BC
:103B500014B070BD7047000010B50248FEF7D9FFE1
:103B600010BD00001401002010B50248FEF7D1FF7F
:103B700010BD0000CC000020F0B502681A4B1B4CB1
:103B8000984201D0A04203D17025AA434D682A4330
:103B9000174D184E184F98420AD0A04208D0174C23
:103BA000A04205D0A84203D0B04201D0B84205D10E
:103BB0001446032212029443CA6822438024A2437B
:103BC0004C69224302608A68C2620A688262984233
:103BD00005D0A84203D0B04201D0B84201D1096952
:103BE000016301214161F0BD002C0140000400404F
:103BF00000400140004401400048014000200040D6
:103C000010B5CB06DB0E0121046A99408C43046297
:103C1000016A9A401143016210BD30B58468FF25E6
:103C20002D021B021343AC430B432343836030BD7F
:103C3000826870239A430A4307210A4382607047CF
:103C4000F0B5026A520852000262056A436882694E
:103C50007024A24392080C689200144302229543F8
:103C60008A68164E2A43144DA84207D0B04205D0A8
:103C7000134FB84202D0134FB84206D10827BA43B7
:103C8000CF681743042297433A46A84207D0B04270
:103C900005D00B4DA84202D00A4DA84206D10325FB
:103CA0002D02AB434D691D438B692B4343608461F7
:103CB000496841630262F0BD002C014000400140B0
:103CC000004401400048014070B5026A10239A4345
:103CD0000262056A4268836973242402A3430C6864
:103CE00024021C4320239D438B681B012B43124D50
:103CF000A84208D11D46CB688026B5431B012B4343
:103D00004025AB4308E00D4DA84205D00C4DA8421C
:103D100002D00C4DA84208D10325AD02AA434D693B
:103D2000AD0015438A6992002A4342608461496864
:103D30008163036270BD0000002C0140004001401F
:103D4000004401400048014070B5026AFF2301337E
:103D50009A430262056A4368C2697024A2439208CA
:103D60000C68920014430122520295438A681202A1
:103D70002A43124DA84208D11546CA68C614B54355
:103D800012022A430515AA4308E00D4DA84205D0AA
:103D90000C4DA84202D00C4DA84208D103252D039A
:103DA000AB434D692D011D438B691B012B434360C0
:103DB000C4614968C163026270BD0000002C01400B
:103DC00000400140004401400048014030B5026A13
:103DD00001231B039A430262046A4268C369732584
:103DE0002D02AB430D682D021D4301235B039C4351
:103DF0008B681B0323430C4CA04208D00B4CA04201
:103E000005D00B4CA04202D00A4CA04205D101249F
:103E1000A403A2434C69A40122434260C5614968DE
:103E20000164036230BD0000002C014000400140ED
:103E3000004401400048014030B5036A046A640848
:103E4000640004628469F025AC43120122430A2411
:103E5000A3430B438261036230BD30B5036A102473
:103E6000A34303628469036A0F252D031203AC4345
:103E70002243A024A343090119438261016230BD9A
:103E8000F8B50E460746114C0A2501F0BFFC01D2D9
:103E90002046F8BD3146384601F072FD0C4CA04278
:103EA00001DD2846F8BD0B4D294601F0D9FC21461D
:103EB000FCF710FF0146284601F062FD214601F0A3
:103EC0005FFCFCF7B7FF80B2F8BD000010270000D0
:103ED0000000204100401C46F8B5614D2C46203CB6
:103EE0002A7C218F606B012A02D0022A02D1002293
:103EF000FDF729FE2078012802D0022804D008E02E
:103F000021890122606802E0218900226068FDF7B2
:103F10001AFE534F207B6037012844D0287F0128A8
:103F200041D00720FDF76AFE4E4E4F49B06901F0BF
:103F300027FDFCF7A5FE4D4A4D4BFCF77DFCFCF739
:103F400091FA20624849706B01F01AFDFCF798FE67
:103F5000464A474BFCF770FCFCF784FA2065B06DCD
:103F6000FCF78EFE0022434BFCF743FC02460B4657
:103F70000020414900F018FDFCF774FA70663A49D8
:103F8000306D01F0FDFCFCF77BFE384A384BFCF746
:103F900053FCFCF767FA3860E169206A01F036FCEF
:103FA00005D8012004E00720FDF738FEBCE7022019
:103FB00020702073216AE069FFF762FF20612848C2
:103FC0002038C16C006D01F021FC01D8012000E017
:103FD0000220234C28742877203C216DE06CFFF7E9
:103FE0004FFF2064254CC1206070B7251C48A57088
:103FF0000026E6702038006AA11DFCF77BF904203A
:104000002071C120207316486573A673203821469D
:10401000006D1131FCF76EF90520E0734034C120CA
:10402000E070257166713868A0600A20A071C12017
:10403000A0730B48E573267420382146C0691331FC
:10404000FCF758F90B2767740548A576E676203803
:104050002146C06C1E31FCF74DF92777F8BD0000F2
:10406000140300205C0200200000C8429A9999992C
:104070009999D93F0000164000002440C403002055
:1040800010B5104C217B2046C06A01290AD0FEF7EA
:10409000B7FC0C482030007F01280AD0E06DFEF705
:1040A000AFFC10BD00682169C162E06AFEF780FCC8
:1040B000EFE7E16D206C0968C862E06DFEF778FCFF
:1040C00010BD0000F402002010B5818CC90707D094
:1040D00001684A6801235B049A43836A1A434A6071
:1040E000818C890707D501684A6801231B049A431C
:1040F000C36A1A434A60818C490707D501684A6838
:1041000001239B049A43036B1A434A60818C09077D
:1041100007D501684A680123DB039A43436B1A43BE
:104120004A60818CC90607D50268916801231B0388
:104130009943836B19439160818C890607D5016887
:104140008A6801235B039A43C36B1A438A60818C9C
:10415000490612D503685A6801210905046C8A438F
:1041600022435A60026C8A4207D1026851680323D5
:104170005B059943436C19435160818C090607D54F
:1041800001684A680123DB04806C9A4302434A6059
:1041900010BD0000F8B50446002680300660FDF72B
:1041A000D9FC054620680068124F000709D5012197
:1041B0002B46002249052046009700F0E7F9002829
:1041C0000DD12068006840070BD501212B46002245
:1041D00089052046009700F0D9F9002801D0032076
:1041E000F8BD2020A067E0672666603426750020B1
:1041F000F8BD0000FFFFFF0110B5406A0022014634
:1042000040314A834A82FEF777FE10BD10B5EFF3C6
:104210001081012282F3108802681368FF24213480
:10422000A343136081F31088EFF31081012282F31E
:104230001088026893685B085B00936081F31088C4
:10424000016E01290BD1EFF31081012282F3108856
:10425000026813681024A343136081F3108820219F
:10426000C16700210166416610BD70B5014640314D
:104270008B8BC46F0268222C04D0906908210843FC
:10428000906170BD928C446D1A402280426D921CE8
:1042900042654A8B521E4A834A8B002AF1D1EFF3C2
:1042A0001082012383F3108803681C68FF252135E1
:1042B000AC431C6082F31088EFF31082012383F378
:1042C000108803689C68640864009C6082F310880E
:1042D0002022C26700224266036E012B02D0FEF745
:1042E000F5FF70BD0266EFF31082012383F310889F
:1042F0000468256810239D43256082F310880268B6
:10430000D469E443E40600D41362098BFEF7F3FD9D
:1043100070BD70B5014640318B8BC46F0268222C92
:1043200004D0906908210843906170BD928C1A40B6
:10433000436D1A70426D521C42654A8B521E4A836D
:104340004A8B002AF1D1EFF31082012383F3108806
:1043500003681C68FF252135AC431C6082F310887C
:10436000EFF31082012383F3108803689C686408CC
:1043700064009C6082F310882022C267002242669B
:10438000036E012B02D0FEF7A1FF70BD0266EFF3B2
:104390001082012383F310880468256810239D434D
:1043A000256082F310880268D469E443E40600D4EF
:1043B0001362098BFEF79FFD70BD000070B50446C7
:1043C00080682169E2690843616900251143226818
:1043D00008431168404B1940014311602168486847
:1043E000032212039043E26810434860A169206AE7
:1043F000084321688A680B231B029A4302438A60A0
:1044000036492068884210D13548006B8007800FFC
:104410000ED0012805D0022805D003280AD1022198
:1044200009E0042107E0082105E02E49884201D176
:10443000002100E010210120E369C0032A4A2B4E2D
:10444000834223D1002906D0022907D0042907D0AE
:10445000082937D108E0FDF7E9FC03E0104603E046
:10446000FDF7F4FC002831D0616840004A0880184C
:10447000FBF748FF80B201461039B14222D81B49F0
:10448000491C01400007400F08431DE0002906D0E9
:10449000022907D0042907D0082913D108E0FDF725
:1044A000C5FC03E0104603E0FDF7D0FC00280DD06A
:1044B00061684A081018FBF725FF80B201461039E1
:1044C000B14201D9012501E02168C8600020606681
:1044D000A066284670BD0000F369FFFF0038014068
:1044E000001002400044004000127A00EFFF00007C
:1044F00070B54165014640310A834A830022426615
:10450000012385681B03FF249D4204D10569002D0A
:1045100031D11B4C2FE0002D29D08A8380210A50F5
:104520002221C167EFF31081012484F3108804680D
:10453000A56801263543A56081F3108881689942FA
:1045400002D10169002918D00E49416674210A542C
:10455000EFF31081012282F3108800680268FF23C4
:1045600021331A43026081F31088002070BD056971
:10457000002D00D07F248C83D0E70349E5E70000BD
:10458000FF010000134300086B420008FFB581B033
:1045900005461746044660350A9E55E0701C53D008
:1045A000FDF7D8FA0499401AB04230D8002E2ED028
:1045B00020680168490747D5C069C043000543D456
:1045C00001202168C0020862EFF31080012181F30D
:1045D000108821680B68FF22A13293430B6080F39F
:1045E0001088EFF31080012181F3108821688A6818
:1045F000520852008A6080F310882020A067E0678C
:104600008034206000202875032005B0F0BDEFF352
:104610001080012181F3108821680B68FF22A132EC
:1046200093430B6080F31088EFF31080012181F336
:10463000108821688A68520852008A6080F31088C6
:104640002020A067E067DDE72068C1690298884301
:1046500004D00020B842A1D00020D6E70120F9E71D
:1046600010B50248FEF74AFC10BD00005C010020B6
:1046700010B50C4C2146227B48680989012A02D0DA
:10468000022A02D10022FDF75EFA0748C121C17259
:10469000B721017300214173217BC1740221817311
:1046A00010BD0000E0010020A403002004480349DD
:1046B000416002210181017370470000000400483D
:1046C000E0010020F8B5040C8BB2264682B25E43AE
:1046D0000D0C1046370C58433604801900217941DF
:1046E00016466E43370C36048019794126466E43D0
:1046F0008919F8BD30B47446641E2578641CAB4239
:1047000000D21D46635D5B00E31830BC1847000013
:104710004900CA020243100000D004204A0D01D013
:1047200001221043044A490D914201D1022108435C
:10473000012800D105207047FF0700008307FF22F2
:10474000DB0E9A408907090E9940002808DB830890
:1047500009489B001B18186890430843186070476D
:104760000007000F0838830804489B001B18D8690D
:1047700090430843D861704700E400E000ED00E09A
:10478000F8B504464F1EC8000838211815461E46C5
:10479000086849683A4606239A4310D02A463346A9
:1047A000FCF7C6FB3A46D200083AA3181A687F1EE7
:1047B0005B68FCF711F806223B469343EED1022FCB
:1047C00023D0042F11D0062F2FD12A463346FCF7D1
:1047D000AFFBE36AA26AFBF7FFFF2A463346FCF70A
:1047E000A7FB636A226AFBF7F7FF2A463346FCF70A
:1047F0009FFBE369A269FBF7EFFF2A463346FCF70C
:1048000097FB63692269FBF7E7FF2A463346FCF70B
:104810008FFBE368A268FBF7DFFF2A463346FCF70D
:1048200087FB63682268FBF7D7FFF8BD002210B54D
:10483000134610460149FBF7FFFF10BD0000F03F93
:1048400010B5FBF7C9FF10BD002210B51346104686
:104850001146FBF7F1FF10BD10B50721024A0020F9
:104860000907FCF789FC10BD01030000034A10B5DD
:1048700000201107FCF780FC10BD000001FDFFFFC8
:1048800070B5274C207A012833D0022807D003289E
:1048900012D1218B00226069FDF755F907E020480D
:1048A00040300188E06BFDF749F900281ED0A18C4B
:1048B0000022206AFDF747F9E568E868FCF7FEFA90
:1048C000A16A00F0CDFF1749FCF704FAFCF7B2FA31
:1048D000296848631448C1218175B721C175002139
:1048E0000176217A81770321417670BD218B606941
:1048F00011E080210D48FDF721F90028A18C206AE4
:104900000BD00022FDF71FF9218B00226069FDF713
:104910001AF9A18C206A0122CCE70122F2E70000FB
:10492000F00100200000C842A40300200014004849
:10493000FDF71EF9FFF7D4F8FEF776FDFEF7F4FD5C
:10494000FEF788FEFEF79EFEFEF714FEFEF72CFE35
:1049500000F028FDFEF7D2FEFFF7A8FEFEF742FDAD
:10496000FFF71EF800F0B2FE0D4801210170002192
:10497000017200F057FE0B4C0220207000F07AFD0F
:1049800020780128FAD1FFF7A7FAFFF771FEFEF7AA
:1049900097FEFCF765FEFFF773FFFFF70FF8EDE7F3
:1049A0005C02002000000020F0B51FB496B08446E1
:1049B0000C460246199D1898039049006800630050
:1049C000490840080193002A01D0012600E0002692
:1049D0009E19FE4BF6185B109E422BD36E00039F70
:1049E0000296002F00D00127F719F84EF84BBE1998
:1049F0009E421FD3039E0346F64F334309D03B46E6
:104A00009C4201D1002A04D0019B002A05D0012636
:104A100004E0002039461BB0F0BD00269E19EE4B85
:104A20009E4207D8039F029E002F00D00127F6194F
:104A30009E4207D92B4660462146189AFFF700FF91
:104A40001BB0F0BD0023002C29DAE44EB04226DA78
:104A5000E34EB04201DB022321E0DE4EB0421EDB1A
:104A6000E04E070DBE19142E09DD3427BF1B039E2F
:104A7000FE400196BE40039FBE420BD00FE0039F55
:104A8000002F0CD11427BF1B0646FE400196BE40E6
:104A9000864204D1019BDE07F60F02239B1B0E46C4
:104AA000164318D1002D16DA002C03D0022B01D0AA
:104AB000012B06D00220FCF709FAFFF7B7FE1BB066
:104AC000F0BD0220FCF702FAFFF7B0FE0122D20788
:104AD00051401BB0F0BD039E002E61D1BF4EB042CD
:104AE00020D1C148844201D1002A08D0B94881426E
:104AF00009DB002D10DB189829461BB0F0BD002003
:104B0000B4491BB0F0BD002D06DA01222946D207B8
:104B1000189851401BB0F0BDB44979440868496801
:104B20001BB0F0BDAB4FB84225D1002D1FDA0029D4
:104B300004D0B14212D1002A09D018E0002A72D163
:104B4000A649E20F0020D20711431BB0F0BD0020A0
:104B5000E20F0146D20711431BB0F0BDB14206DAA5
:104B6000234600203946FBF767FE1BB0F0BD104618
:104B700021461BB0F0BDB14212DA0126B607B5429C
:104B800003D1234610461946FEE3994EB54207D19C
:104B9000261E05DB1046314600F074FD1BB0F0BD4B
:104BA00067007F081646002A40D100290AD08B4AA8
:104BB000914229D1002C0EDD002D1CDB0020114676
:104BC0001BB0F0BD022B16D0002C14D0012B12D13B
:104BD000002C14DB0FE0002C28DA002D09DB012B60
:104BE00003D000207D491BB0F0BD002081491BB0DF
:104BF000F0BD012B03D0002001461BB0F0BD00200A
:104C00000121C9071BB0F0BD724A91420ED1002CA0
:104C100001DA002B17D0022B06D00020C043FCF78E
:104C20007CF91BB0F0BD90E20120F8E7E217521CBE
:104C300094461A4307D000220892664C62465B1ED7
:104C40001A4307D009E00120FCF740F9FFF7FCFD0B
:104C50001BB0F0BD0022644C0892674A90427DDD93
:104C6000664B674A98421FDD914202DC002D05DB4E
:104C70004DE05848814217DB002D48DD0220FCF74B
:104C800025F9FFF7E9FD05460E460022534B214664
:104C90000898FCF74DF9084671004908C00FC00795
:104CA000014328461BB0F0BD914215DA002D2EDAE3
:104CB0000220FCF70BF9FFF7CFFD05460E46002258
:104CC000464B21460898FCF733F972005208C80F8A
:104CD000C0070243114617E03E4B994223DD002DE9
:104CE00015DD0220FCF7F2F8FFF7B6FD05460E468B
:104CF00000223A4B21460898FCF71AF90846710041
:104D00004908C00FC007014328461BB0F0BD022070
:104D1000FCF7DCF8FFF7AAFD49004908E20FD207CB
:104D200011431BB0F0BD002230463946FBF761FD50
:104D3000012205460E46D243FCF71EFA314A324B99
:104D4000FBF762FD2A463346FCF7F2F80022284BB7
:104D5000FBF75AFD07462A46334600E064E003911C
:104D600010461946FCF7E4F83A46039BFCF7E0F8D6
:104D70000746032209915207244B28463146FCF787
:104D8000D7F807910C90224A204B38460999FCF736
:104D9000CFF8074601911F4A1F4B28463146FCF7C2
:104DA000C7F83A46019BFBF724FD07460B4602462F
:104DB000099107990C98FBF70FFD00250E46284630
:104DC000079B0C9AFBF715FD3A4627E0FFFF1F00F3
:104DD000FFFF0F000000F03F0000E0FF0000F07F49
:104DE0000000404301FCFFFF0000F0BF92100000F4
:104DF0000000E03F0000F0FF0000E0410000F04351
:104E0000FFFFEF3F555555555555D53F4715F73FD2
:104E1000FE822B6544DF5DF80BAE543E099BFBF729
:104E2000F3FC02460B4652E1012500202D05A94264
:104E300007DA352230463946FCF79EF9064634201B
:104E4000C0430A151218FE48101803900803FD49C4
:104E5000000B01430F46FC49884201DC002003E0BF
:104E6000FA49884202DA0120119005E000201190F1
:104E70000398401C7F1B039011980597C200F448CB
:104E80000F927844801843680268394630460D9383
:104E90000292FBF7AEFC07910C9030460D9B029AF4
:104EA0000599FBF799FC02460B460020E549FBF704
:104EB000C3FC09910490079B0C9AFCF739F81290F7
:104EC00000201090E3480D46784400680E900121C0
:104ED00078104907084311990D9B89044018012156
:104EE000C90447183946029A0E98FBF782FC3246ED
:104EF000059BFBF789FC02460B4629461098FCF7F8
:104F000017F8064602913B4629460E9A1098FCF780
:104F10000FF8079B0C9AFBF777FC3246029BFBF7D6
:104F200068FC099B049AFCF703F80591129A0A9011
:104F30002B4610461946FBF7FBFF06460246C648BD
:104F40000F460B4606217844FFF71AFC32463B46D3
:104F50000091049010461946FBF7EAFF009B049A63
:104F6000FBF7E6FF06460F462B461946129A1098A5
:104F7000FBF732FC059B0A9AFBF7DAFF32463B4609
:104F8000FBF72AFC109A079104902B46104619460D
:104F9000FBF7CEFFB14E0022334609910290FBF79A
:104FA0001BFC079B049AFBF717FC002007460246F0
:104FB00033460091FBF71DFC099B029AFBF719FC95
:104FC000079B049AFBF720FC06460D913A462946BA
:104FD000009B1098FBF7ACFF07910C902B463046D6
:104FE000129A0D99FBF7A4FF05460E463A46009B20
:104FF00005990A98FBF79CFF33462A46FBF7ECFB22
:1050000002460B460746099107990C98FBF7E4FB0B
:1050100000250E462846079B0C9AFBF7EAFB3A460A
:10502000099BFBF7F1FB07460722099152078C4BBE
:1050300031462846FBF77CFF07910090894A884B50
:1050400038460999FBF774FF07460191864A874B5A
:1050500031462846FBF76CFF3A46019BFBF7BCFB49
:10506000834B7B440F9A9B181A685B68FBF7B4FB71
:10507000029009910398FBF750FF05910490099B5A
:10508000029A07990098FBF7A7FB7A4B7B440F9A8B
:105090009B181A685B6817460393FBF79DFB059BFB
:1050A000049AFBF799FB0E462846059B049AFBF7EA
:1050B000A0FB3A46039BFBF79CFB079B009AFBF780
:1050C00098FB099B029AFBF79FFB02460B46199936
:1050D00000200C900F461898FBF72AFF02910490CD
:1050E0003B460C9A19991898FBF783FB2A463346DE
:1050F000FBF71EFF029B049AFBF76EFB09910E90D3
:105100002A46334639460C98FBF712FF06460F46EF
:10511000099B0E9AFBF760FB574A0D46914220DB34
:105120005242AA18024310D132463B46FBF761FBBC
:1051300004900391514A524B09990E98FBF74CFB8E
:10514000039B049A00F0E8FA1ED20220FBF7BEFE91
:10515000FFF782FB49004908E20FD20711431BB059
:10516000F0BD6A00474B52089A420DD3464AAA182E
:10517000024300D0CBE532463B46FBF73AFB099BA6
:105180000E9A00F0C9FAF5D96800002340082C49AE
:105190000393020D3D4B5218984223DD0120000578
:1051A000521CD04042195000400D401838497944F3
:1051B000096813468C463749C1408B4312030121CD
:1051C000120B090551181422101AC1400391002D29
:1051D00001DA48420390624630463946FBF709FB44
:1051E00006460F4632463B4609990E98FBF7F4FAFD
:1051F00000252A46284B28460591FBF799FE079182
:105200000C90264A264B28460599FBF791FE009103
:10521000029032463B4628460599FBF7EAFA099B7D
:105220000E9AFBF7F1FA1F4A1F4BFBF781FE009B1A
:10523000029AFBF7D1FA07460B460246099135E080
:1052400001FCFFFF0000F03F8E9803007AB60B00D0
:10525000A20C0000E40C00000E0C0000000008404E
:1052600009C7EE3FFD033ADCF5015B14E02F3EBEBB
:10527000E20A0000A80A000000009040FE822B65B0
:105280004715973C00CC904000346F3F0000E03F52
:10529000FE090000FFFF0F00432EE63F396CA80C0B
:1052A000615C20BEEF39FAFE422EE63F07990C986A
:1052B000FBF792FA05460E46079B0C9AFBF799FA04
:1052C0003A46099BFBF7A0FA09912A4633460E900D
:1052D00010461946FBF72CFE074602462F480B46A0
:1052E000059105217844FFF74BFA3A46059BFBF7F9
:1052F0001FFE2A463346FBF787FA074601912846E8
:105300003146099B0E9AFBF713FE099B0E9AFBF799
:1053100063FA012304910C9000229B0738460199FF
:10532000FBF767FA05910E903A4628463146019BF5
:10533000FBF7FEFD059B0E9AFBF77EFA049B0C9A89
:10534000FBF757FA2A463346FBF753FA0022144B71
:10535000FBF75AFA064603980D4600054119091550
:10536000002912DC30462946039AFBF705FFFFF7B8
:10537000CFF9042801D1FFF779FA30462946039A7C
:10538000FBF7FAFE064601E004E029180B46324618
:1053900021460898FBF7CCFD1BB0F0BDA00800002B
:1053A0000000F03F70B5324C3048E06621460020E6
:1053B0002031207020770D46087620352875092089
:1053C000C0060421E06021820222A062A28501229F
:1053D00060642A81FCF7B7FBA18D0122A06AFCF76B
:1053E000B2FB29890122606CFCF7ADFBFCF7D2F817
:1053F000012211460020FCF78FF870340122206052
:1054000003211046FCF788F8606001220321022086
:10541000FCF782F80321A06001220846FCF77CF823
:105420000122E06011460420FCF776F80122206199
:1054300011460520FCF770F8606101220321062067
:10544000FCF76AF8A061012203210720FCF764F849
:105450000021E0610846FCF7B5F80121C9040023EA
:1054600003220120FCF7D3F870BD000020000020CB
:105470005C020020F8B5634D0026287D2C46A03440
:1054800000282FD02746203F398F0122786BFCF768
:105490005AFB20462030009001880122F86BFCF76F
:1054A00052FBE07B0B214843421910461530FCF7B4
:1054B000DBF99077000AD077E07B0B214843411954
:1054C000514B0B221531386BFDF720FF398F00222D
:1054D000786BFCF738FB009800220188F86BFCF72A
:1054E00032FB2E75696802296FDD46486A7A0930F9
:1054F0000090C12A25D1A87AB7287DD1E87A012861
:105500007AD10B297DD3891E0098FCF7ADF9698A01
:10551000814271D12A7B3B4801210E303B4F130061
:10552000FFF7E8F80E6A0814212B306A6A3A6735EB
:105530003F4B586A687B032804D0022804D0012816
:1055400002D059E0E1734DE031490AE0687B03285D
:1055500004D0022804D0012802D04DE0022040E00F
:105560002C49087348E0687B03283AD0022801D010
:10557000012841D1284908723EE0687B03283BD1CD
:1055800004202EE0687B032836D1052029E0687BC3
:10559000032831D10A2024E0687B03282CD108207D
:1055A0001FE06A7B032A02D0042A02D024E00B20E9
:1055B00017E0FAF78EFEF8611EE06A7B032A02D03C
:1055C000042A03D018E00C200BE01AE0FAF781FE61
:1055D000F86411E06A7B032A02D0042A04D00BE0AD
:1055E0000D20E073297507E0FAF773FE0B49486157
:1055F00002E00B49687B08700B210098FAF765FE02
:105600006E60F8BD8403002088130000F4020020BF
:1056100034020020E0010020F001002044020020BC
:105620000000002070B5144C1248206313486063DA
:10563000410109222187D206E2632546CA1140357D
:105640002A800022FCF77FFA29880022E06BFCF711
:105650007AFA01220A490748FDF706FE20460B2187
:105660007738FAF732FE0020214680390875486005
:1056700070BD00005C01002004040020000400480C
:105680001D000020F8B506460C46FBF73BFE051E44
:105690000F4600D00120014349000B484908411A38
:1056A000C90F0DD0002E01D0012100E000210C43D4
:1056B00061004908401AC00F02D10120FBF706FC27
:1056C00028463946F8BD00000000F07F10B50E48AE
:1056D000022109220170D206102342600381017366
:1056E0000A4BC362426108230383034620331974C3
:1056F000074C446301240487197706494264C16555
:1057000020214030018110BDF4020020CC00002097
:10571000000400481401002070B501251C002D056F
:105720000C4310D4EC4206D4AC420AD48B4200D0D5
:1057300070BD824270BDEB4217D4E94215D48B4252
:1057400070BD9B4270BDEC4206D5AC42F9D5994282
:1057500000D070BD904270BD6D005C00EC4204D280
:105760004C00EC4201D2994270BD0FB4034C0CBC0A
:1057700003BC30B4FBF77EFD30BC70BD19001604CD
:1057800070B501250400ED074C4020D4441A01D225
:10579000001B0919C60D4B00F2B2FF2A29D01B0EBF
:1057A0002CD000020C02D31A2C43DC4028430519EC
:1057B00010D2280A02D3401C6D0611D0761EF605C1
:1057C0008019FF2A00DA70BDC00DC00570BD6940A8
:1057D00000F0DCF801200543C541521C761CE8E7C7
:1057E00064089C40C90161408900E7D10124A043BD
:1057F000E4E71B0E440200D0034870BD002AFCD130
:10580000C00FC00770BD00BF0000C07F01230200B1
:10581000DB050A430DD4DA4203D49A4207D4884206
:105820007047D84214D4D94212D48842704780427B
:105830007047DA4203D59A42F9D5814270475B003E
:105840004200DA4204D24A00DA4201D28142704771
:1058500010B5024AFBF7C0FC10BD00BF09001604DA
:1058600070B5420064414B005C41120E39D01B0EF2
:1058700038D0FF2A3CD0FF2B3AD040024902400AE0
:10588000490A060045184E43000A090AD21848433F
:10589000ED017F3A0104731A4019190C4318990F4E
:1058A00004D001215B0849075B1A521CD80904D3B4
:1058B000401CF50301D19D0607D0FF2A08D2D5056B
:1058C00006D0E4072043401970BD0125A843F4E742
:1058D000002A01DCE00770BD2402FF202043C00540
:1058E00070BD1B0EFF2A03D0FF2B01D0E00770BD57
:1058F000FF2645003606B54206D84D00B54203D80E
:10590000D218FF2A00D0E7E7004870BD0000C07F32
:1059100001230A00DB0502430DD4DA4203D49A4284
:1059200007D481427047D94214D4D84212D481425C
:10593000704789427047DA4203D59A42F9D58842C6
:1059400070475B004A00DA4204D24200DA4201D2D8
:10595000884270474840414010B5024A4840FBF732
:105960003BFC10BD0900160470B50125ED07684029
:1059700004004C4002D5694000F008F8FFF706FF2C
:1059800070B501250400ED074C4022D4441A02D220
:105990006C40001B0919C60D4B00F2B2FF2A4BD018
:1059A0001B0E50D000020C02D31A2C43DC40A8433B
:1059B000051B05D5AD0019D36D08761E521E37D0D4
:1059C000F605280A01D2801970BD70416D0603D01A
:1059D00070BD6940FFF7DAFE9C4009026140490052
:1059E00001D0401E70BD0124A04370BD6D081DD0C4
:1059F00001202B0C01D12D0410302B0E01D12D02D2
:105A000008302B0F01D12D01001DAB0F01D1AD00CE
:105A1000801CEB0F01D16D00401C6D00361A121A6C
:105A2000680AF5054019012A02DB70BD002070BD2F
:105A3000C036300AC00770BD1B0E440201D1FF2BD7
:105A400000D1024870BD002AF0D070BD0000C07FB8
:105A5000000000000000000001020304060708091E
:105A6000000000000102030480807F7E7D7C7B7A41
:105A70007978777676757473727171706F6E6E6DFA
:105A80006C6C6B6A6A6968686766666564646363A0
:105A900062616160605F5F5E5E5D5D5C5C5B5B5A26
:105AA0005A59595858575756565555555454535393
:105AB00052525251515050504F4F4F4E4E4D4D4DEE
:105AC0004C4C4C4B4B4B4A4A4A4949494848484739
:105AD0004747474646464545454444444443434377
